{
  "contractName": "Degrees",
  "abi": [
    {
      "constant": true,
      "inputs": [
        {
          "name": "",
          "type": "string"
        },
        {
          "name": "",
          "type": "uint256"
        }
      ],
      "name": "graduates",
      "outputs": [
        {
          "name": "",
          "type": "uint256"
        }
      ],
      "payable": false,
      "stateMutability": "view",
      "type": "function"
    },
    {
      "constant": true,
      "inputs": [
        {
          "name": "",
          "type": "uint256"
        }
      ],
      "name": "professors",
      "outputs": [
        {
          "name": "profAddress",
          "type": "address"
        },
        {
          "name": "name",
          "type": "string"
        },
        {
          "name": "id",
          "type": "uint256"
        }
      ],
      "payable": false,
      "stateMutability": "view",
      "type": "function"
    },
    {
      "inputs": [],
      "payable": false,
      "stateMutability": "nonpayable",
      "type": "constructor"
    },
    {
      "anonymous": false,
      "inputs": [
        {
          "indexed": false,
          "name": "id",
          "type": "uint256"
        }
      ],
      "name": "newProfessorRegistered",
      "type": "event"
    },
    {
      "anonymous": false,
      "inputs": [
        {
          "indexed": false,
          "name": "_name",
          "type": "string"
        }
      ],
      "name": "profAttemptedToSignMoreThanOnce",
      "type": "event"
    },
    {
      "anonymous": false,
      "inputs": [
        {
          "indexed": true,
          "name": "_hash",
          "type": "string"
        },
        {
          "indexed": false,
          "name": "_name",
          "type": "string"
        }
      ],
      "name": "newGraduateSignature",
      "type": "event"
    },
    {
      "constant": true,
      "inputs": [
        {
          "name": "_hash",
          "type": "string"
        }
      ],
      "name": "verifyGraduation",
      "outputs": [
        {
          "name": "",
          "type": "bool"
        }
      ],
      "payable": false,
      "stateMutability": "view",
      "type": "function"
    },
    {
      "constant": false,
      "inputs": [
        {
          "name": "hash",
          "type": "string"
        }
      ],
      "name": "signGraduation",
      "outputs": [],
      "payable": false,
      "stateMutability": "nonpayable",
      "type": "function"
    },
    {
      "constant": true,
      "inputs": [],
      "name": "getProfessorIndex",
      "outputs": [
        {
          "name": "",
          "type": "int256"
        }
      ],
      "payable": false,
      "stateMutability": "view",
      "type": "function"
    }
  ],
  "bytecode": "0x608060405260026001553480156200001657600080fd5b50336000806101000a81548173ffffffffffffffffffffffffffffffffffffffff021916908373ffffffffffffffffffffffffffffffffffffffff160217905550620000b273d2e2434023c5f1211c535d4d833c8501fa4ef2326040518060400160405280600281526020017f6d660000000000000000000000000000000000000000000000000000000000008152506200022460201b60201c565b6200010d73de99efb18f63233a6368f1bda14f8dbe3a4e8fea6040518060400160405280600781526020017f6b616e61746173000000000000000000000000000000000000000000000000008152506200022460201b60201c565b6200016873885772f8ca506b0c3c311e0431c34d9fb08bd2716040518060400160405280600781526020017f78656e616b6973000000000000000000000000000000000000000000000000008152506200022460201b60201c565b620001c373722ede063ee86ea683d30dd33e9b1195ba424a9c6040518060400160405280600881526020017f6d686c69776e68730000000000000000000000000000000000000000000000008152506200022460201b60201c565b6200021e73c5850865722794abe537d88aa40b830dc1cb9a096040518060400160405280600e81526020017f6c616d7072696e6f7564616b69730000000000000000000000000000000000008152506200022460201b60201c565b620004f0565b6000809054906101000a900473ffffffffffffffffffffffffffffffffffffffff1673ffffffffffffffffffffffffffffffffffffffff163373ffffffffffffffffffffffffffffffffffffffff1614620002e7576040517f08c379a00000000000000000000000000000000000000000000000000000000081526004018080602001828103825260208152602001807f596f7520617265206e6f742074686520636f6e74726163742773206f776e657281525060200191505060405180910390fd5b620002f16200040a565b60405180606001604052808473ffffffffffffffffffffffffffffffffffffffff16815260200183815260200160038054905081525090506003819080600181540180825580915050906001820390600052602060002090600302016000909192909190915060008201518160000160006101000a81548173ffffffffffffffffffffffffffffffffffffffff021916908373ffffffffffffffffffffffffffffffffffffffff1602179055506020820151816001019080519060200190620003bc92919062000441565b50604082015181600201555050507ff3abfd32d896edcc6506443318439e9f82cbb5d52a947606306b61b770492a2581604001516040518082815260200191505060405180910390a1505050565b6040518060600160405280600073ffffffffffffffffffffffffffffffffffffffff16815260200160608152602001600081525090565b828054600181600116156101000203166002900490600052602060002090601f016020900481019282601f106200048457805160ff1916838001178555620004b5565b82800160010185558215620004b5579182015b82811115620004b457825182559160200191906001019062000497565b5b509050620004c49190620004c8565b5090565b620004ed91905b80821115620004e9576000816000905550600101620004cf565b5090565b90565b610c6a80620005006000396000f3fe608060405234801561001057600080fd5b50600436106100575760003560e01c80633c3750f41461005c57806362b9b64f146100d55780636d2fa403146101ae57806380abc52b14610281578063b8f2b5e71461029f575b600080fd5b6100d36004803603602081101561007257600080fd5b810190808035906020019064010000000081111561008f57600080fd5b8201836020820111156100a157600080fd5b803590602001918460018302840111640100000000831117156100c357600080fd5b9091929391929390505050610380565b005b610198600480360360408110156100eb57600080fd5b810190808035906020019064010000000081111561010857600080fd5b82018360208201111561011a57600080fd5b8035906020019184600183028401116401000000008311171561013c57600080fd5b91908080601f016020809104026020016040519081016040528093929190818152602001838380828437600081840152601f19601f820116905080830192505050505050509192919290803590602001909291905050506106f1565b6040518082815260200191505060405180910390f35b610267600480360360208110156101c457600080fd5b81019080803590602001906401000000008111156101e157600080fd5b8201836020820111156101f357600080fd5b8035906020019184600183028401116401000000008311171561021557600080fd5b91908080601f016020809104026020016040519081016040528093929190818152602001838380828437600081840152601f19601f820116905080830192505050505050509192919290505050610735565b604051808215151515815260200191505060405180910390f35b610289610812565b6040518082815260200191505060405180910390f35b6102cb600480360360208110156102b557600080fd5b81019080803590602001909291905050506109f4565b604051808473ffffffffffffffffffffffffffffffffffffffff1673ffffffffffffffffffffffffffffffffffffffff16815260200180602001838152602001828103825284818151815260200191508051906020019080838360005b83811015610343578082015181840152602081019050610328565b50505050905090810190601f1680156103705780820380516001836020036101000a031916815260200191505b5094505050505060405180910390f35b6000809050600033905060008090505b6003805490508160ff161015610427578173ffffffffffffffffffffffffffffffffffffffff1660038260ff16815481106103c757fe5b906000526020600020906003020160000160009054906101000a900473ffffffffffffffffffffffffffffffffffffffff1673ffffffffffffffffffffffffffffffffffffffff16141561041a57600192505b8080600101915050610390565b508161049b576040517f08c379a000000000000000000000000000000000000000000000000000000000815260040180806020018281038252600f8152602001807f4e6f7420612050726f666573736f72000000000000000000000000000000000081525060200191505060405180910390fd5b60006104a5610812565b90506104f58186868080601f016020809104026020016040519081016040528093929190818152602001838380828437600081840152601f19601f82011690508083019250505050505050610ae3565b61054a576040517f08c379a000000000000000000000000000000000000000000000000000000000815260040180806020018281038252602a815260200180610bf1602a913960400191505060405180910390fd5b60008112156105a4576040517f08c379a0000000000000000000000000000000000000000000000000000000008152600401808060200182810382526024815260200180610c1b6024913960400191505060405180910390fd5b600285856040518083838082843780830192505050925050509081526020016040518091039020819080600181540180825580915050906001820390600052602060002001600090919290919091505550848460405180838380828437808301925050509250505060405180910390207f3a24e8c2e49458b68b0e84191e3be8129cea7d8b07959cc9ee34460e1b1d047d6003838154811061064257fe5b906000526020600020906003020160010160405180806020018281038252838181546001816001161561010002031660029004815260200191508054600181600116156101000203166002900480156106dc5780601f106106b1576101008083540402835291602001916106dc565b820191906000526020600020905b8154815290600101906020018083116106bf57829003601f168201915b50509250505060405180910390a25050505050565b600282805160208101820180518482526020830160208501208183528095505050505050818154811061072057fe5b90600052602060002001600091509150505481565b600060606002836040518082805190602001908083835b6020831061076f578051825260208201915060208101905060208303925061074c565b6001836020036101000a03801982511681845116808217855250505050505090500191505090815260200160405180910390208054806020026020016040519081016040528092919081815260200182805480156107ec57602002820191906000526020600020905b8154815260200190600101908083116107d8575b5050505050905060015481511061080757600191505061080d565b60009150505b919050565b60008060009050600033905060008090505b6003805490508160ff1610156108bb578173ffffffffffffffffffffffffffffffffffffffff1660038260ff168154811061085b57fe5b906000526020600020906003020160000160009054906101000a900473ffffffffffffffffffffffffffffffffffffffff1673ffffffffffffffffffffffffffffffffffffffff1614156108ae57600192505b8080600101915050610824565b508161092f576040517f08c379a000000000000000000000000000000000000000000000000000000000815260040180806020018281038252600f8152602001807f4e6f7420612050726f666573736f72000000000000000000000000000000000081525060200191505060405180910390fd5b60008090505b6003805490508110156109ca573373ffffffffffffffffffffffffffffffffffffffff166003828154811061096657fe5b906000526020600020906003020160000160009054906101000a900473ffffffffffffffffffffffffffffffffffffffff1673ffffffffffffffffffffffffffffffffffffffff1614156109bd57809350506109ef565b8080600101915050610935565b507fffffffffffffffffffffffffffffffffffffffffffffffffffffffffffffffff92505b505090565b60038181548110610a0157fe5b90600052602060002090600302016000915090508060000160009054906101000a900473ffffffffffffffffffffffffffffffffffffffff1690806001018054600181600116156101000203166002900480601f016020809104026020016040519081016040528092919081815260200182805460018160011615610100020316600290048015610ad35780601f10610aa857610100808354040283529160200191610ad3565b820191906000526020600020905b815481529060010190602001808311610ab657829003601f168201915b5050505050908060020154905083565b600060606002836040518082805190602001908083835b60208310610b1d5780518252602082019150602081019050602083039250610afa565b6001836020036101000a0380198251168184511680821785525050505050509050019150509081526020016040518091039020805480602002602001604051908101604052809291908181526020018280548015610b9a57602002820191906000526020600020905b815481526020019060010190808311610b86575b5050505050905060008090505b8151811015610be35784828281518110610bbd57fe5b60200260200101511415610bd657600092505050610bea565b8080600101915050610ba7565b5060019150505b9291505056fe50726f666573736f7220617474656d7074656420746f207369676e206d6f7265207468616e206f6e63654f6e6c792050726f666573736f72732063616e207369676e2067726164756174696f6e73a165627a7a723058205009f9fc6773208eeae8269722a43059f4a7deb5e186b1a974274983389658ab0029",
  "source": "pragma solidity ^0.5.5;\n\n//In Solidity constant functions are functions, that are promised not to modify the state.\n//view can be considered as the subset of constant that will read the storage(hence viewing).\n//pure can be considered as the subset of constant where the return value will only be determined by it's parameters(input values).\n//pure is more restrictive than view.\n\n// public - all can access\n// external - Cannot be accessed internally, only externally\n// internal - only this contract and contracts deriving from it can access\n// private - can be accessed only from this contract\n\ncontract Degrees {\n    address private owner;\n    uint private k = 2;// the required amount of signatures to be considered a graduate\n\n    // the string will be the hash of the graduates info\n    // uint[] is an array of professor's indexes that signed the graduation of a give student.\n    mapping(string => uint[]) public graduates;\n\n    // this version wastes memory and storage for no reason\n    // mapping(string => Professor[]) public graduates;\n\n    Professor[] public professors;\n\n    struct Professor {\n        address profAddress;\n        string name;\n        uint id;\n    }\n\n\n    //- EVENTS -//\n    event newProfessorRegistered(uint id);\n\n    event profAttemptedToSignMoreThanOnce(\n        string _name\n        );\n\n    event newGraduateSignature(\n        string indexed _hash, // indexed allows a student to filter events to a certain hash (his own)\n        string _name\n        );\n\n\n    //- MODIFIERS -//\n    modifier isOwner() {\n        require(msg.sender == owner, \"You are not the contract's owner\");\n        _; // _; tells us where the body of the caller function will be injected\n    }\n\n    modifier isProf() {\n        bool b = false;\n        address s = msg.sender;\n        for(uint8 i = 0; i<professors.length; i++){\n            if(professors[i].profAddress == s){\n                b = true;\n            }\n        }\n        require(b,\"Not a Professor\");\n        _;\n    }\n\n\n\n    constructor() public{\n        owner = msg.sender;\n        addProf(address(0xD2E2434023C5f1211c535D4d833c8501FA4EF232),\"mf\");\n        addProf(address(0xDe99efB18F63233A6368f1BdA14f8Dbe3A4E8FEa),\"kanatas\");\n        addProf(address(0x885772F8CA506B0C3c311e0431C34d9fB08BD271),\"xenakis\");\n        addProf(address(0x722eDE063ee86EA683D30DD33E9b1195bA424A9c),\"mhliwnhs\");\n        addProf(address(0xc5850865722794aBe537d88aa40B830Dc1cb9a09),\"lamprinoudakis\");\n    }\n\n    // this function must only be called at the contract's creation\n    function addProf(address _profAddress, string memory _name) private isOwner{\n        Professor memory p = Professor({\n            profAddress: _profAddress,\n            name: _name,\n            id: professors.length\n        });\n\n        professors.push(p);\n\n        emit newProfessorRegistered(p.id);\n    }\n\n    function verifyGraduation(string memory _hash) public view returns(bool){\n        uint[] memory approvals = graduates[_hash];\n        if(approvals.length >= k){\n            return true;\n        }\n        return false;\n    }\n\n    //external functions can only be called outside the contract\n    function signGraduation(string calldata hash) external isProf{\n        int profIndex = getProfessorIndex();\n        require(hasntAlreadySigned(profIndex,hash),\"Professor attempted to sign more than once\");\n        require(profIndex>=0,\"Only Professors can sign graduations\");\n        graduates[hash].push(uint(profIndex));\n        emit newGraduateSignature(hash,professors[uint(profIndex)].name);\n    }\n\n    function getProfessorIndex() public view isProf returns(int){\n        for(uint i = 0; i<professors.length; i++){\n            if(professors[i].profAddress == msg.sender){\n                return int(i);\n            }\n        }\n        return -1;\n    }\n\n    function hasntAlreadySigned(int _profIndex, string memory _hash) internal view returns(bool){\n        uint[] memory approvals = graduates[_hash];\n        for(uint i = 0; i<approvals.length; i++){\n            if(approvals[i] == uint(_profIndex)){\n                // emit profAttemptedToSignMoreThanOnce(prof.name);\n                return false;\n            }\n        }\n        return true;\n    }\n}",
  "sourcePath": "/c/Users/User/Downloads/ethereum-vuejs-dapp/contracts/Degrees.sol",
  "compiler": {
    "name": "solc",
    "version": "0.5.8+commit.23d335f2.Emscripten.clang"
  },
  "schemaVersion": "3.0.10",
  "updatedAt": "2019-06-14T14:56:42.076Z",
  "devdoc": {
    "methods": {}
  },
  "userdoc": {
    "methods": {}
  }
}